:020000040800F2
:10000000380600209D010008F31800087916000842
:10001000F1180008A90200087B1B0008000000007E
:10002000000000000000000000000000311900087E
:100030003503000800000000F51800083319000817
:10004000B7010008B7010008B7010008B7010008B0
:10005000B7010008B7010008B7010008B7010008A0
:10006000B7010008B7010008B7010008B701000890
:10007000B7010008B7010008B7010008B701000880
:10008000B7010008B7010008B7010008B701000870
:10009000B7010008AD020008B7010008B701000869
:1000A000B7010008E9190008B7010008B701000806
:1000B000B7010008B7010008B7010008B701000840
:1000C000B7010008B7010008B7010008B701000830
:1000D000B7010008B7010008B7010008B701000820
:1000E000B7010008B7010008B7010008B701000810
:1000F000B7010008B7010008B7010008B701000800
:10010000B7010008B7010008B7010008B7010008EF
:10011000B7010008B7010008B7010008B7010008DF
:10012000B7010008B7010008B7010008B7010008CF
:10013000B70100080000000000000000B70100083F
:10014000B7010008B7010008B7010008B7010008AF
:10015000B7010008B7010008B7010008B70100089F
:10016000B7010008B7010008B7010008B70100088F
:10017000B7010008B70100080000000000000000FF
:10018000B7010008B7010008DFF80CD000F07AF8DA
:1001900000480047BD1B000838060020064880477D
:1001A00006480047FEE7FEE7FEE7FEE7FEE7FEE75C
:1001B000FEE7FEE7FEE7FEE7CD190008890100082B
:1001C0002DE9F05F0546002092469B46884606468C
:1001D000814640241BE0284641464746224600F01F
:1001E00041F853465A46C01A914110D31146184659
:1001F000224600F028F82D1A67EB01084F462246E8
:100200000120002100F01FF817EB00094E41201ECD
:10021000A4F10104DFDC484631462A464346BDE8E6
:10022000F09FD2B201E000F8012B491EFBD27047CB
:100230000022F6E710B513460A4604461946FFF7B2
:10024000F0FF204610BD202A04DB203A00FA02F11C
:10025000002070479140C2F1200320FA03F31943B4
:1002600090407047202A04DB203A21FA02F0002156
:10027000704721FA02F3D040C2F1200291400843B6
:1002800019467047064C074D06E0E06840F0010350
:1002900094E8070098471034AC42F6D3FFF778FF94
:1002A000D41F0008F41F0008FEE70000014800F01A
:1002B000C6B90000CC0100201CB5044600210F483F
:1002C00000F038F948B10D4A6B461C3A00210B4842
:1002D00000F041F918B1F2201CBDF1201CBD074A05
:1002E00000211C3A684603E0435C6354491CC9B2D0
:1002F00013698B42F8D8107C1CBD0000CC01002093
:100300003EB500226B4603E0845C9C54521CD2B282
:100310008A42F9D300200649019002AB6A4601F1F6
:10032000340000F01AF8002800D001203EBD000083
:1003300098010020704790F82020012A07D0022A57
:1003400005D0416A41F48021416201207047006874
:1003500042690A43426100207047F0B590F820508E
:100360000468A468012D05D0022D03D0416A41F430
:10037000802153E014F0406F01D1E5004BD5C4F368
:100380000164022C03D9416A41F4000146E00125D1
:10039000A5401D608D684FF4C0739DB1CE68354394
:1003A0004E6845EAC605066803EB0417F5514FF49D
:1003B000C275076805EB04150E697E51097D012998
:1003C00005D009E00E88CD6845EA4655EBE701689F
:1003D0004E5946F480764E511179D2F805504FF4BB
:1003E000C67641EA0525016806EB04168D511178A1
:1003F000D2F801204FF4C47541EA0221026805EBEE
:1004000004155151006803EB0411425842F00102F7
:1004100042500020F0BD416A41F4001141620120C8
:10042000F0BD000010B590F82020012A07D0022A64
:1004300005D0416A41F480214162012010BD3B4852
:10044000D0F8002242F00102C0F80022D0F80022C9
:1004500022F47C52C0F80022D0F800224B6A42EA13
:100460000322C0F800220A7D02F01F0301229A40F5
:10047000D0F81C329343C0F81C32CB69B3B9D0F822
:100480000C329343C0F80C328C894B6864F31F43E1
:100490004C6900EBC404C4F840320C890B6864F367
:1004A0001F434C6900EBC404C4F84432CB69012BF0
:1004B00016D1D0F80C321343C0F80C320C884B68BC
:1004C00064F31F434C6900EBC404C4F840320C8948
:1004D000CB6864F31F434C6900EBC404C4F8443296
:1004E0008B69002BD0F804320ED01343C0F80432CD
:1004F0000B69002BD0F8143208D01343C0F8143223
:10050000096A012904D008E09343EFE79343F5E734
:10051000D0F81C121143C0F81C12D0F8001221F0C0
:100520000101C0F80012002010BD0000006400406E
:10053000704700000246002092F82030012B01D0C5
:10054000022B05D1106821B1D0F8100000F0030093
:100550007047C068FAE730B590F82040012C05D00C
:10056000022C03D0416A41F480215DE00468002937
:1005700055D02469A40754D04FF4D874056804EB0F
:1005800001142D5915F00405956005682D594ED0BC
:10059000ED08556005682C5904F00204D4604FF44E
:1005A000DA74056804EB01142D5905F00F05156187
:1005B00005682D59C5F30725956105682C59240C4C
:1005C00054614FF4DC72046802EB0112A4581C70F1
:1005D0000468A458240A5C700468A458240C9C7015
:1005E0000468A258120EDA704FF4DE72046802EB4F
:1005F0000112A4581C710468A458240A5C71046890
:10060000A458240C9C710468A258120EDA71006878
:1006100081B1016941F020010161002030BDE46831
:10062000A8E7416A41F400114162012030BD6D0D1F
:100630001560AFE7C16841F02001C160EDE72DE929
:10064000F05F0546006800244669D0F8049087688A
:10065000D0F80CB0D0F810A0D0F81880F10748D02E
:10066000F90714D001218160B80703D5284600F0AE
:10067000E2F90CE0780702D54FF4006407E0380790
:1006800002D54FF4805402E0284600F0D3F9F80573
:1006900016D529684FF480708860B80503D52846C0
:1006A00000F0CBF90CE0780502D544F4005407E0E3
:1006B000380502D544F4804402E0284600F0BCF935
:1006C000F80316D529684FF480308860B80303D545
:1006D000284600F0B4F90CE0780302D544F4004455
:1006E00007E0380302D544F4803402E0284600F0E5
:1006F000A5F9300707D55FEACB6004D5296810203B
:1007000044F40074C86070074FF0080707D55FEA2B
:100710000B7004D52868C760284600F059F9B00767
:1007200006D52868C068800702D0284600F051F935
:10073000700607D55FEACA6004D52968102044F422
:1007400080640861B00607D55FEA0A7004D528689E
:100750000761284600F03EF9F00606D528680069D2
:10076000800702D0284600F036F9B00308D55FEACA
:10077000C96005D5296810204860284600F02CF98A
:10078000F00307D55FEA097004D52868476028465A
:1007900000F056F9300446D55FEA497040D5F005BF
:1007A00004D55FEAC87001D044F00104B00504D557
:1007B0005FEA887001D544F00204700504D55FEA51
:1007C000487001D544F00404300529D518F0700FA5
:1007D00026D008F07000402815D006DC102809D07B
:1007E00020280AD0302816D10AE050280ED06028E0
:1007F00011D10EE044F008040DE044F010040AE0CA
:1008000044F0200407E044F0400404E044F0800495
:1008100001E044F480742868816921F070018161ED
:10082000296804204860002C05D0686A204368626B
:100830002846FFF77DFEBDE8F09F70B5040003D0A9
:1008400094F8200010B104E0012070BD204600F0B3
:1008500081F82068016821F00201016000F0D4F9FC
:100860000546052604E000F0CFF9401B0A2811D800
:10087000206840688007F6D42068016841F00101D3
:10088000016000F0C1F905460BE000F0BDF9401B26
:100890000A2806D9606A40F40030606284F820605B
:1008A000D2E720684068C007EFD0207E012820688A
:1008B00001683DD021F080010160607E0128206840
:1008C000016838D021F040010160A07E0128206835
:1008D000016833D021F020010160E07E012820680A
:1008E00001682ED041F010010160207F01282068AE
:1008F000016829D021F008010160607F012820688B
:10090000016824D021F004010160D4E90201084308
:10091000D4E90412114308436168491E0843216861
:10092000C86100206062012084F82000002070BDB2
:1009300041F08001C0E741F04001C5E741F02001EE
:10094000CAE721F01001CFE741F00801D4E741F0F8
:100950000401D9E710B586B0044614216846FFF7B4
:1009600067FC18492068884229D11748002102688D
:1009700042F000720260006800F0007005901248BA
:100980001038026842F002020260006800F00200C3
:1009900005904FF4407000900220CDE90101032042
:1009A0000390092004906946084800F04BF80022A3
:1009B0001146152000F098F9152000F087F906B0CF
:1009C00010BD0000006400404038024000040240B6
:1009D00070477047704770477047000070B5044615
:1009E00090F82000012804D0606A40F40020606282
:1009F00018E0022084F820002068016821F001013D
:100A0000016000F001F905460EE000BF00F0FCF8BF
:100A1000401B0A2808D9606A40F400306062052053
:100A200084F82000012070BD20684068C007EDD127
:100A3000606270BD7047704770477047704770477D
:100A4000704700002DE9F84F00224FF00108032500
:100A50004FF00F0E0B6808FA02F42340A3426ED148
:100A60004E68012E05D0022E03D0112E01D0122E79
:100A700012D186684FEA420C05FA0CF7BE43CF68E4
:100A800007FA0CF7374387604668A6430C79C4F32E
:100A90000014944034434460C668570005FA07FCCC
:100AA0008C6826EA0C06BC403443C4604C68022CB7
:100AB00001D0122C13D1D40800EB8404A346D4F83F
:100AC000209054074FEAD46A0EFA0AF629EA06097A
:100AD0000E6906FA0AF646EA0906CBF820600668AF
:100AE0000C7926EA0C0604F00304BC40344304608D
:100AF0004C68E40065D5364C266846F4804626608E
:100B0000246822F0030604F480440094314C3444F9
:100B1000A446D4F808489607370F0EFA07F6B443F0
:100B20002D4EB04201D1002624E02C4EB04201D11E
:100B300001261FE02A4EB04202D102261AE040E010
:100B4000284EB04201D1032614E0274EB04201D115
:100B500004260FE0254EB04201D105260AE0244EBE
:100B6000B04201D1062605E0224EB04201D107264F
:100B700000E00826BE402643CCF808681E4E3468C4
:100B80004F689C43FF0300D51C4334601A4C241D5E
:100B900026684F689E43BF0300D51E432660164E4D
:100BA000083634684F689C43FF0200D51C4334600C
:100BB000114E0C3634684F689C43BF0200D51C436D
:100BC0003460521C102AFFF445AFBDE8F88F0000D6
:100BD000443802400030014000000240000402405E
:100BE00000080240000C02400010024000140240C5
:100BF00000180240001C0240003C01400AB1816123
:100C000070470904FBE70000014880687047000056
:100C10001401002002488168027811448160704705
:100C2000140100200B4810B5016841F40071016007
:100C3000016841F480610160016841F480710160E4
:100C4000032000F071F8002000F006F800F024F80E
:100C5000002010BD003C024070B50D4D04464FF41D
:100C60007A712878B1FBF0F00A490968B1FBF0F01D
:100C700000F0E4FA48B9102C07D200222146501E99
:100C800000F032F800206C6070BD012070BD0000E3
:100C900014010020200100200B4882B0016841F4BB
:100CA00080410160006800F4804000900648001F09
:100CB000016841F080510160006800F080500090B0
:100CC000052002B000F030B844380240002809DBAB
:100CD00000F01F02012191404009800000F1E02056
:100CE000C0F8001170470000F0B40E4B1B680C46B2
:100CF000C3F30223C3F10705042D00D90425191DF0
:100D0000072901D2002300E0DB1E012606FA05F1C7
:100D1000491E214099409E40761E16403143F0BC4A
:100D200000F02CBF0CED00E0064900F00702086857
:100D30004FF6FF03184040EA0220034A10430860C0
:100D4000704700000CED00E00000FA052DE9F047C7
:100D50000E46050065D0DFF81481D8F80000F7B220
:100D600000F00F00B04207D288F80070D8F80000F9
:100D700000F00F00B04254D128683D4C810712D5D5
:100D8000400703D5206840F4E05020602878000731
:100D900003D5206840F4604020602068A96820F0F6
:100DA000F000084320602878C0072DD030496868DB
:100DB0000839012812D0022813D0032811D009685D
:100DC000890700292DDA216821F003010143216000
:100DD000FFF71AFF814641F2883A0EE0096889035D
:100DE000EFE709688901ECE7FFF70EFFA0EB0901C7
:100DF000514502D90320BDE8F0872068696800F0FA
:100E00000C00B0EB810FEFD1D8F80010404601F094
:100E10000F01B14207D90770006800F00F00B0421F
:100E200001D00120E7E72878400705D52068E96868
:100E300020F4E050084320602878000706D5206899
:100E4000296920F4604040EAC100206000F018F8F1
:100E50002168084AC1F30311515CC8400649086083
:100E600006480068FFF7F8FE0020C4E7003C024097
:100E700008380240C41F000820010020180100208B
:100E8000154810B5006810F00C02144813D041103A
:100E9000042A0FD0082A0ED10F4C241F2268236881
:100EA00002F03F025B0207D52068C0F38810A0FB68
:100EB000010106E0084610BD2168C1F38811A1FBBD
:100EC00000010023FFF77CF92168C1F30141491CAF
:100ED0004900B0FBF1F010BD083802400024F400D6
:100EE0002DE9F84F04006ED02078DFF83C93C0075E
:100EF000A9F104054AD009F104000168C1F3810198
:100F0000012908D00068C0F3810002280AD1D9F86D
:100F10000000400206D52868800337D560680028A5
:100F2000E1D033E06068B0F5803F10D0B0F5A02F7D
:100F3000286810D020F480302860286820F48020B1
:100F400028606068A8B1FFF75FFE06460DE02868DC
:100F500040F48030F4E740F480202860F7E700BFD9
:100F6000FFF752FE801B642873D828688003F7D5EA
:100F70000CE0FFF749FE064605E000BFFFF744FE20
:100F8000801B6428F0D828688003F7D42078DFF825
:100F90009C8280074FF0000A3ED5A348001D0168DF
:100FA00011F00C0F08D00068C0F3810002280BD1AB
:100FB000D9F80000400207D42868800716D5E068F9
:100FC000012800D112E02BE1E068B8B10120C8F897
:100FD0000000FFF719FE064605E000BFFFF714FE0C
:100FE000801B0228C0D828688007F7D528682169A7
:100FF00020F0F80040EAC10028600DE0C8F800A029
:10100000FFF702FE064604E0FFF7FEFD801B022804
:101010001FD828688007F7D42078000722D5824E91
:1010200083486169703671B101210160FFF7ECFD01
:10103000074604E0FFF7E8FDC01B022809D8306826
:101040008007F7D50EE0C0F800A0FFF7DDFD0746EA
:1010500005E082E0FFF7D8FDC01B02287DD830688C
:101060008007F7D42078400768D5DFF8BCB10027A7
:101070000BF13C0BDBF80000C0000BD4DBF80010D8
:1010800041F08051CBF80010DBF80000012700F0A0
:1010900080500090674E3068C00510D4306840F42E
:1010A00080703060FFF7B0FD009005E0FFF7ACFD09
:1010B0000099401A022850D83068C005F6D55A4E1B
:1010C000A0686C3601280FD00528306810D020F0B9
:1010D00001003060306820F004003060A068B8B1D2
:1010E000FFF792FD00900FE0306840F00100F4E758
:1010F00040F004003060F7E7FFF786FD0099411AE1
:1011000041F28830814266D830688007F4D50EE01D
:10111000FFF77AFD009007E0FFF776FD0099411A8E
:1011200041F28830814256D830688007F4D42FB11C
:10113000DBF8001021F08051CBF80010A069C8B393
:101140003949091D0968C1F3810102294AD00228E1
:10115000504607D0C8F8600000E03CE0FFF754FDBF
:1011600004463BE04746C8F86000FFF74DFD0646E1
:1011700005E000BFFFF748FD801B02282BD8286838
:101180008001F7D4D4E907010843A16A2A4A490833
:1011900002EB0141626A41EA8211084394F82C1083
:1011A00040EA0161C9F8001001203866FFF72CFD04
:1011B000044606E036E000BFFFF726FD001B0228CC
:1011C00009D828688001F7D52CE000BFFFF71CFD87
:1011D000001B022802D90320BDE8F88F286880018F
:1011E000F4D41FE00128F7D0D9F80000E26900F438
:1011F0008001914214D1226A00F03F0191420FD147
:1012000047F6C071626A0140914209D1A26A00F4B6
:101210004031914204D1E16A00F07060884201D00F
:101220000120D9E70020D7E70438024000004742F8
:10123000800E4742007000400000FFFF10B5401EC6
:10124000B0F1807F01D3012010BD4FF0E024606138
:101250000F21601700F092FC0020A06107202061A0
:10126000002010BD7047704770B590F83C20012AEF
:1012700032D0012480F83C40022280F83D200368EF
:101280005A689D6822F070060A6832435A60134B10
:1012900002689A4214D0B2F1804F11D0104B9A429A
:1012A0000ED0104B9A420BD00F4B9A4208D00F4BE6
:1012B0009A4205D00E4B9A4202D00E4B9A4204D16C
:1012C000496825F080031943916080F83D40002172
:1012D00080F83C10084670BD022070BD000001403F
:1012E0000004004000080040000C004000040140E1
:1012F000004001400018004010B504460068042278
:1013000000F0F9FB2068416C41F400414164206821
:10131000816801F00701062903D0016841F001014D
:101320000160002010BD10B5040003D094F83D000A
:1013300010B107E0012010BD002084F83C002046D9
:1013400000F00CF8022084F83D00211D206800F018
:1013500061FB012084F83D00002010BD08B5006845
:101360000B49884212D10B48016841F0010101602C
:101370000068002200F00100009001211920FFF711
:10138000B3FCBDE808401920FFF7A0BC08BD000071
:10139000000001404438024070B5044690F83C001B
:1013A000012817D0012584F83C50022084F83D0024
:1013B0002068826822F0770222F47F428260086807
:1013C000502830D00DDC20284DD005DC98B31028F3
:1013D0003BD148E0022070BD302844D0402834D1B1
:1013E00039E0602828D0702806D0B0F5805F2CD076
:1013F000B0F5005F29D10AE0CB68D1E9012120686E
:1014000000F086FB2068816841F0770109E0CB6835
:10141000D1E90121206800F07BFB2068816841F45C
:101420008041816011E0CA684968206800F082FB51
:101430005021206807E016E0CA684968206800F07B
:101440008AFB6021206800F06DFB84F83D5000208D
:1014500084F83C0070BDCA684968206800F06AFBE7
:1014600040212068EFE7226801461046EBE770470D
:1014700010B50268044631B1042908D008291AD0F1
:101480000C2908D11BE0D06840F0020002E0D068CF
:1014900040F00400D0600122206800F01FFB2068AB
:1014A000816801F00701062903D0016841F00101BC
:1014B0000160002010BDD06840F00800EAE7D06865
:1014C00040F01000E6E770B50446006801694FF08F
:1014D0000005C943890715D4C168C943890711D4D8
:1014E000E91E01610120207720688069800720467D
:1014F00002D0FFF7BCFF04E000F098F8204600F0AF
:1015000096F8257720680169C943490717D4C1684F
:10151000C943490713D46FF0040101610220207709
:101520002068806910F4407F204602D0FFF79FFFBB
:1015300004E000F07BF8204600F079F82577206879
:101540000169C943090716D4C168C943090712D400
:101550006FF008010161042020772068C0698007CE
:10156000204602D0FFF783FF04E000F05FF820463A
:1015700000F05DF8257720680169C943C90617D4D2
:10158000C168C943C90613D46FF010010161082076
:1015900020772068C06910F4407F204602D0FFF712
:1015A00066FF04E000F042F8204600F040F825779E
:1015B00020680169C943C90708D1C168C943C9077F
:1015C00004D1891E0161204600F054F820680169A9
:1015D000C943090609D4C168C943090605D46FF097
:1015E000800101612046FFF73DFE20680169C94383
:1015F000490609D4C168C943490605D46FF04001C2
:101600000161204600F037F820680169C943890666
:101610000BD4C168C943890607D46FF0200101616A
:101620002046BDE87040FFF71EBE70BD7047704792
:1016300010B504460068012200F050FA0B492068FA
:10164000884202D00A49884203D1416C41F40041EA
:1016500041642068816801F00701062903D0016810
:1016600041F001010160002010BD000000000140B8
:101670000004014070477047FEE7000010B52448A1
:101680002249002401600C21C0E901144FF400310B
:10169000C0E90341C9004161047644768476C4768A
:1016A00004774477FFF7C9F808B172B6FEE7184827
:1016B00045F288225C38012144610260C0E906419C
:1016C00041F20802C0E90124C460046101620E21F4
:1016D000416201465C30FEF7A5FE08B172B6FEE736
:1016E0000B48FFF77BF908B172B6FEE70621084800
:1016F000FEF721FE08B172B6FEE705480421343832
:10170000C0E902140821016110BD0000006400401E
:10171000CC0100202DE9F04F87B014216846FEF778
:1017200087FD41480024016841F00401016001681F
:1017300001F004010591016841F080010160016838
:1017400001F080010591016841F00101016001682B
:1017500001F001010591016841F002010160016899
:1017600001F002010591016841F008010160006883
:10177000DFF8B88000F0080048F2F7050590002275
:1017800029464046FFF73AFADFF8A4A041F6FF46A3
:10179000002231465046FFF731FADFF898904FF6B5
:1017A000E347002239464846FFF728FADFF888B0B9
:1017B000002204215846FFF721FA4FF4C640CDE934
:1017C0000004694640460294FFF73CF90095012564
:1017D000CDE90154694640460394FFF733F900967A
:1017E000CDE90154694650460394FFF72BF9009761
:1017F000CDE90154694648460394FFF723F94FF4B5
:101800004070CDE90004694650460294FFF71AF98A
:1018100004200090CDE90154694658460394FFF72F
:1018200011F907B0BDE8F08F3038024000080240DF
:101830000000024000040240000C024030B587B0B6
:1018400000242A4D009401940294039404942648A1
:10185000059428600920C5E9010443F63F00C5E965
:1018600003046C612846AC61FFF75DFD08B172B6F8
:10187000FEE74FF48050009069461C48FFF78CFD4E
:1018800008B172B6FEE7049404A918480594FFF75E
:10189000EBFC08B172B6FEE700211448FFF7C8FE62
:1018A00004211248FFF7C4FE08211048FFF7C0FECC
:1018B00000210E48FFF720FD04210C48FFF71CFD16
:1018C00008210A48FFF718FD00210848FFF7D0FD5E
:1018D0002868C16841F00101C160022201211D2078
:1018E000FFF702FA07B030BD00000140F40100200C
:1018F000FEE7FEE77047000010B50C48FEF7DCFC81
:101900000A492639082808700FD108480278CA8287
:1019100042780A83C278837802EB03224A830079F3
:101920008871032801D90320887110BD260000208A
:101930007047FFF76FB9000030B593B030216846AB
:10194000FEF776FC14210CA8FEF772FC1D4800255A
:10195000016841F080510160006800F080501190F2
:101960001948016841F4804101600068022400F4D4
:1019700080401190012000904FF4A020019060055C
:10198000CDE9064008AA0420902182E813000B90BC
:101990006846FFF7A5FA08B172B6FEE70CA90F205A
:1019A00081E831004FF4A0500F904FF48050109018
:1019B00004210CA8FFF7CAF9002801D072B6FEE78F
:1019C00013B030BD40380240007000400548016847
:1019D00041F47001016003494FF0006080390860F4
:1019E0007047000088ED00E00649012008800649A4
:1019F0000888401C088005490888401C0880044865
:101A0000FFF761BD0A0000200C0000200E0000203E
:101A1000F4010020F0B50268254C264D264E274FD4
:101A2000274B4FF0804CA04209D0604507D0A84218
:101A300005D0B04203D0B84201D0984204D122F080
:101A4000700E4A6842EA0E02A0421BD0604519D0CF
:101A5000A84217D0B04215D0B84213D0984211D046
:101A6000184DA8420ED0184DA8420BD0174DA842D1
:101A700008D0174DA84205D0164DA84202D0164DE9
:101A8000A84203D122F44075CA682A434D6922F066
:101A900080022A4302608A68C2620A688262A042A7
:101AA00001D0984201D10969016301214161F0BD72
:101AB000000001400004004000080040000C00400D
:101AC0000004014000400140004401400048014042
:101AD00000180040001C00400020004010B501F03C
:101AE0001F030121046A99408C430462016A9A40F1
:101AF0001143016210BD10B501F01F030421046AF7
:101B000099408C430462016A9A401143016210BDFE
:101B100010B5846842EA032224F47F440A43224336
:101B2000826010BD826822F070020A4342F0070111
:101B30008160704710B5036A046A24F001040462EE
:101B4000846924F0F00444EA021423F00A020A43F0
:101B50008461026210BD10B5036A23F010030362B2
:101B60008369046A23F4704343EA023224F0A00339
:101B700043EA01118261016210BDFEE70907090E07
:101B8000002804DB00F1E02080F80014704700F02A
:101B90000F0000F1E02080F8141D704702E008C833
:101BA000121F08C1002AFAD170477047002001E0D7
:101BB00001C1121F002AFBD170470000FFF732F865
:101BC000FFF7BAFEFFF7A6FDFFF738FEFFF756FD59
:101BD000DFF8DC930124C9F8BC42C9F88042C9F897
:101BE0008442C9F88842F34EDFF8CCA3DFF8CC83F7
:101BF0006427A6F1FC0B0025BBF80A105846012902
:101C0000FAD14581C9F8BC42D9F83812012944D02B
:101C100002214171C28AB2FBF7F17180B2FBF7F188
:101C200007FB11230A21B3FBF1F3B380B2FBF1F3FD
:101C300001FB1322F280028BB2FBF7F33381B2FB7C
:101C4000F7F307FB1323B3FBF1F37381B2FBF1F35B
:101C500001FB1322B281428B4FF47A73B2FBF3FC87
:101C6000A6F80EC0B2FBF3FC03FB1C23B3FBF7F397
:101C70003382B2FBF7F307FB1323B3FBF1F3738259
:101C8000B2FBF1F301FB1321B1828179012906D066
:101C900002290BD0032916D10FE04471BAE7C8F826
:101CA000A842C8F8B052C8F8AC520CE0C8F8AC4230
:101CB000C8F8A842C8F8B05205E0C8F8B042C8F861
:101CC000A842C8F8AC424470028A437843820B2B86
:101CD00025D2DFE803F02406090C0E1115181B1E8F
:101CE0002100CAF89C421AE0CAF8984217E051460F
:101CF00003E0C9F8904212E04946C1F894420EE070
:101D0000CAF880420BE0CAF8844208E0CAF8A84248
:101D100005E0CAF8AC4202E0A949C1F8884236F8A9
:101D200013100A2919D2DFE801F00507090B0D0F7E
:101D300011131517FC2210E060220EE0DA220CE0ED
:101D4000F2220AE0662208E0B62206E0BE2204E0A3
:101D5000E02202E0FE2200E0F62285708178491C34
:101D6000C9B28170C829F9D3C2F3C011C8F8801272
:101D7000C2F38011C8F88412C2F34011C8F8881267
:101D8000C2F30011C8F88C12C2F3C001C8F8901257
:101D9000C2F38001C8F89412C2F34001C8F8981247
:101DA00002F00101C8F89C125146CAF89C52CAF8C8
:101DB0009852CAF89452C9F89052C9F89452CAF885
:101DC0008052CAF88452CAF8A852CAF8AC52DFF856
:101DD000F0C1CCF888525B1CDBB243700B2BFFF4D4
:101DE00074AF0282457042788282052A3FD2DFE8D2
:101DF00002F003101B273200C1F8BC52C9F89852F8
:101E0000C9F89C52C1F8B052C1F8B452C1F8B852E6
:101E10002DE0C1F8BC42C9F89852C9F89C52C1F8EB
:101E2000B042C1F8B45208E0C1F8BC52C9F89842B7
:101E3000C9F89C52C1F8B0520AE0C1F8B85216E095
:101E4000C1F8BC42C9F89842C9F89C52C1F8B042E6
:101E5000C1F8B442F1E7C1F8BC52C9F89852C9F8C8
:101E60009C42C1F8B052C1F8B452C1F8B842857072
:101E700083785B1CDBB28370C82BF9D3D8F820328F
:101E800013B1C2F109030371D9F82032CC4613B162
:101E9000C2F10903C370521CD2B24270052AA2D308
:101EA000457042788282052A3BD2DFE802F0030CBB
:101EB0001A232E00C1F8BC52CCF89852CCF89C5290
:101EC000C1F8B05207E0C1F8BC42CCF89852CCF847
:101ED0009C52C1F8B042C1F8B45200BFC1F8B85228
:101EE0001FE0C1F8BC52CCF89842CCF89C52C1F823
:101EF000B05207E0C1F8BC42CCF89842CCF89C52F2
:101F0000C1F8B042C1F8B442E8E7C1F8BC52CCF81D
:101F10009852CCF89C42C1F8B052C1F8B452C1F802
:101F2000B842857083785B1CDBB28370C82BF9D311
:101F3000DCF824320381D8F8243213B1C2F104034F
:101F40000371DCF8243213B1C2F10403C370521CD4
:101F5000D2B24270052AA4D30146C2781548DE38B1
:101F600002700A7942704A798270AA224271BB22B9
:101F70008271BBF80C00B0FBF7F107FB110040B910
:101F80000C480821DE38FEF7BBF9FFF7B5FCABF8CB
:101F90000C50BBF80E109622B1FBF2F302FB1311AA
:101FA00011B93221ABF80E10C9F8BC5224E600007A
:101FB00000004142FC0000200080404200004042FE
:101FC0000080414200000000000000000102030404
:101FD00006070809F41F0008000000202401000083
:101FE0009C1B000818210008240100201405000093
:101FF000AC1B000800000000000000000000000012
:1020000000000000000000000000000000000000D0
:1020100000000000000000000000000000000000C0
:10202000000000000AD7233C17B7D1380000000099
:1020300000000000000000000000000000000000A0
:102040000000000000000000000000000000000090
:10205000000000000000000000000000010000007F
:102060000000000000000000000000000000803FB1
:10207000000000000000803F000080BF0000000062
:102080000000000000000000000000000000803F91
:102090000000000000000000000000000000803F81
:1020A000000000000000803F000080BF0000000032
:1020B0000000000000000000000000000000803F61
:1020C0000000000000000000000000000000803F51
:1020D000000000000000803F000080BF0000000002
:1020E0000000000000000000000000000000803F31
:1020F00000000100020003000400050006000700C4
:10210000080009000A0000000100000010000000A3
:08211000000000000024F400AF
:040000050800018965
:00000001FF
