:020000040800F2
:10000000D80D0020290200089B2400088D2000083C
:100010009924000899050008312E0008000000000E
:100020000000000000000000000000009F24000805
:100030009D070008000000009D240008A12400087E
:10004000430200084302000843020008430200087C
:10005000430200084302000843020008430200086C
:100060004302000843020008430200086906000832
:1000700075060008810600088D060008990600082C
:10008000A5060008B1060008430200084302000864
:10009000430200084302000843020008430200082C
:1000A00043020008552500084302000843020008E7
:1000B000430200084302000843020008430200080C
:1000C00043020008430200084302000843020008FC
:1000D00043020008152C0008612C0008AD2C000814
:1000E00043020008430200084302000843020008DC
:1000F000430200084302000843020008BD0600084E
:1001000043020008430200084302000843020008BB
:1001100055280008A12800084302000843020008EF
:1001200043020008C9060008D5060008430200087B
:100130004302000800000000000000004302000825
:10014000430200084302000843020008430200087B
:1001500043020008E1060008ED060008F92C00083B
:10016000430200084302000843020008430200085B
:1001700043020008430200080000000000000000E5
:10018000430200084302000800F002F800F03CF8C7
:100190000AA090E8000C82448344AAF10107DA45E2
:1001A00001D100F031F8AFF2090EBAE80F0013F0F8
:1001B000010F18BFFB1A43F001031847702E00000F
:1001C000902E0000103A24BF78C878C1FAD85207A0
:1001D00024BF30C830C144BF04680C6070470000C1
:1001E0000023002400250026103A28BF78C1FBD840
:1001F000520728BF30C148BF0B6070471FB502F0DF
:100200009FFE1FBD10B510BD00F046F91146FFF767
:10021000F5FF02F01FFE00F064F903B4FFF7F2FFF0
:1002200003BC00F06BF9000009488047094800470B
:10023000FEE7FEE7FEE7FEE7FEE7FEE7FEE7FEE796
:10024000FEE7FEE704480549054A064B70470000F3
:100250003925000889010008D8070020D80D0020A2
:10026000D8090020D809002053EA020C00F0698068
:100270002DE9F04B4FF00006002B1FBFB3FA83F5BA
:1002800003FA05F424FA05F65E4012BF1643B2FAEB
:1002900082F502FA05F4C5F120051EBF22FA05FC1D
:1002A00044EA0C04203556EA044C4FEA144418BFC3
:1002B000641C4FF000084FF00009904271EB030CF2
:1002C00039D3002919BFB1FA81F701FA07F6B0FA5C
:1002D00080F700FA07F6C7F120071EBF20FA07FCD7
:1002E00046EA0C062037B6FBF4FCA7EB0507103FE7
:1002F00007F01F0BCBF120060CFA0BFB2CFA06F6CD
:1003000044BFB3460026202FA4BF5E464FF0000B2B
:100310005BEA060C08BF4FF0010B19EB0B09ABFBB6
:10032000027C48EB0608C01B06FB02CC0BFB03CC8F
:1003300071EB0C01C1E70B46024641464846BDE859
:10034000F08B13B54FF000004FF00001AFF30080C9
:10035000BDE81C407047032A40F2308010F0030CC7
:1003600000F0158011F8013BBCF1020F624498BF08
:1003700011F801CB00F8013B38BF11F8013BA2F1A5
:10038000040298BF00F801CB38BF00F8013B11F020
:10039000030300F04F80083AC0F0088051F8043B96
:1003A000083A51F804CBA0E80810F5E7121D5CBF2D
:1003B00051F8043B40F8043BAFF30080D20724BF60
:1003C00011F8013B11F801CB48BF11F8012B24BFF4
:1003D00000F8013B00F801CB48BF00F8012B704743
:1003E0004FF0000200B5134694469646203922BFCE
:1003F000A0E80C50A0E80C50B1F12001BFF4F7AF19
:10040000090728BFA0E80C5048BF0CC05DF804EBFA
:10041000890028BF40F8042B08BF704748BF20F868
:10042000022B11F0804F18BF00F8012B7047704766
:100430007047704710B5203AC0F00B80B1E81850F3
:10044000203AA0E81850B1E81850A0E81850BFF4BE
:10045000F5AF5FEA027C24BFB1E81850A0E818505D
:1004600044BF18C918C0BDE810405FEA827C24BFB1
:1004700051F8043B40F8043B08BF7047D20728BF3F
:1004800031F8023B48BF11F8012B28BF20F8023B8E
:1004900048BF00F8012B7047754600F02BF8AE46B8
:1004A00005006946534620F00700854618B020B580
:1004B000FFF7C8FEBDE820404FF000064FF00007F0
:1004C0004FF000084FF0000B21F00701AC46ACE8FC
:1004D000C009ACE8C009ACE8C009ACE8C0098D4669
:1004E000704710B50446AFF300802046BDE81040C9
:1004F000FFF793BE00487047780700200149182095
:10050000ABBEFEE726000200704700002DE9F04771
:100510001E49192201F11900FFF71DFF1B4C002095
:10052000DFF86C9032340025184F00EB400229466A
:1005300009EB820C17F11A070CEB81039A7852B180
:100540001E7893F80180DB78F65D26FA08F63240D3
:100550009A401543ADB2491C0329EDD324F810503D
:10056000401C1028DFD30B480178012907D000294F
:1005700003D1418064218180C180BDE8F087228859
:10058000E1882089BDE8F04702F092BC78000020A5
:100590004A2F000806000020FEE70000244A2549F3
:1005A000D0780B2811D124488378012B0DD1037901
:1005B0004B7043790B708379CB70C3798B70037A5E
:1005C0004B71407A08710020D07008784A78000298
:1005D00000B2104300EE100A1A48F8EEC00A9FED70
:1005E000170A20EE801ADFED160A21EE201A80EDA0
:1005F000001A8A78CB78120212B21A4301EE102A3E
:10060000B8EEC11A21EE001A21EE201A80ED011A6F
:100610000A794979120212B20A4301EE102AB8EEA1
:10062000C11A21EE000A20EE200A80ED020A70476E
:100630001400002000000020EC0000200000003822
:10064000000034436800002010B50A2002F098FB37
:100650000A2002F0ABFB0A2002F0BEFBBDE810400E
:100660000A2002F0CFBB0000014800F0F3B8000000
:10067000B8030020014800F0EDB80000F8050020A4
:10068000014800F0E7B80000F8020020014800F03F
:10069000E1B8000058060020014800F0DBB8000077
:1006A00058030020014800F0D5B8000038050020AC
:1006B000014800F0CFB8000098050020014800F084
:1006C000C9B8000018040020014800F0C3B80000B9
:1006D000B8060020014800F0BDB8000078040020F2
:1006E000014800F0B7B8000018070020014800F0EA
:1006F000B1B80000D804002001681823CAB2103A2B
:10070000B2FBF3F2054B6FF30901032A9B5CC3654F
:1007100000D9091D81650846704700000A300008AD
:1007200010B5014600208B698A6A4FF0C07453B13E
:10073000B3F5005F15D072B1012A0CD0022A0AD09D
:10074000032A09D104E01AB1012A06D0022A03D1F2
:10075000C96AC90100D5012010BDC96AA142FAD0F9
:1007600010BD002AF7D0012AF2D0022AF3D0032AC2
:10077000F3D010BD30B50468256825F480252560C8
:10078000046863608368402B036803D09960006845
:10079000C26030BD9A600068C16030BD704772B6FB
:1007A000FEE72DE9F0410446876D00F0A1FA064608
:1007B00094F835000025022806D08020606584F872
:1007C00034500120BDE8F0812068016821F0160155
:1007D00001602068416921F080014161206C08B905
:1007E000A06C20B12068016821F008010160206838
:1007F000016821F0010101600BE000F079FA801B33
:10080000052806D92020606504F8345F0320607055
:10081000D8E720680068C007EFD194F85C103F204B
:100820008840B86004F8345F012060700020C9E798
:1008300090F83510022903D08021416501207047CE
:10084000052180F835100068016821F00101016080
:10085000002070472DE9F84304464FF00009CDF819
:10086000009063484FF41651A56D0068B0FBF1F796
:100870002E6894F85C10082000FA01F131420FD084
:1008800021680A6852070BD50A6822F004020A6040
:1008900094F85C108840A860606D40F001006065CD
:1008A00094F85C104FF0010808FA01F0304208D0CB
:1008B00021684969090604D5A860606D40F002000E
:1008C000606594F85C1004208840304208D02168AC
:1008D0000968890704D5A860606D40F00400606570
:1008E00094F85C1010208840304218D021680968C4
:1008F000090714D5A86020680168490304D5006879
:10090000000308D5A16C07E00168C90503D401689C
:1009100021F008010160216C09B12046884794F854
:100920005C1020208840304231D021680968C90617
:100930002DD5A86094F8350005282068016806D0F8
:10094000490347D5006800031DD4616C1CE021F009
:10095000160101602068416921F080014161206C2D
:1009600008B9A06C20B12068016821F0080101607D
:1009700094F85C103F208840A86084F8349084F894
:100980003580216D1FE0E16B09B120468847606D1D
:1009900000282BD0606DC00714D0052084F83500E6
:1009A0002068016821F0010101600098401C00905E
:1009B000B84203D820680068C007F6D184F83490A4
:1009C00084F83580E16C002910D001B02046BDE8E4
:1009D000F04308470168C905D5D4016821F010012A
:1009E000016084F8349084F83580CCE7BDE8F88362
:1009F000280000202DE9F041044600F079F9064670
:100A00005CB1002584F83450022084F83500206859
:100A1000016821F0010101600DE00120BDE8F081D5
:100A200000F066F9801B052805D9202060650320A9
:100A300084F83500F2E720680068C007F0D122682A
:100A4000116820480140D4E901031843D4E9033672
:100A50003343184363691843A3691843E369184390
:100A6000236A18430843616A042903D1D4E90B13AC
:100A700019430843106020684069666A20F0070146
:100A800030460E43012704280CD1A06A0643E06AD1
:100A900040B12046FFF744FE20B14020606584F855
:100AA0003570BAE7206846612046FFF725FE94F8C6
:100AB0005C203F2191408160656584F8357000209D
:100AC000ACE700003F8010F02DE9F0410446866D50
:100AD00090F83400002501280DD0012084F834005E
:100AE00094F835700020012F07D084F834000225D7
:100AF0002846BDE8F0810220FBE7022784F8357024
:100B000060652046FFF736FE94F85C103F20884071
:100B1000B0602068016841F016010160206C20B1CE
:100B20002068016841F0080101602068016841F017
:100B300001010160DCE700002DE9F84F00224FF0D1
:100B4000010803254FF00F0E0B6808FA02F423404A
:100B5000A3426ED14E68012E05D0022E03D0112E75
:100B600001D0122E12D186684FEA420C05FA0CF71A
:100B7000BE43CF6807FA0CF7374387604668A64341
:100B80000C79C4F30014944034434460C6685700A1
:100B900005FA07FC8C6826EA0C06BC403443C460A6
:100BA0004C68022C01D0122C13D1D40800EB840421
:100BB000A346D4F8209054074FEAD46A0EFA0AF6F6
:100BC00029EA06090E6906FA0AF646EA0906CBF88A
:100BD000206006680C7926EA0C0604F00304BC4089
:100BE000344304604C68E40065D5364C266846F40E
:100BF00080462660246822F0030604F480440094B2
:100C0000314C3444A446D4F808489607370F0EFAFE
:100C100007F6B4432D4EB04201D1002624E02C4EFD
:100C2000B04201D101261FE02A4EB04202D1022675
:100C30001AE040E0284EB04201D1032614E0274ECE
:100C4000B04201D104260FE0254EB04201D1052665
:100C50000AE0244EB04201D1062605E0224EB04201
:100C600001D1072600E00826BE402643CCF80868DC
:100C70001E4E34684F689C43FF0300D51C4334600C
:100C80001A4C241D26684F689E43BF0300D51E439F
:100C90002660164E083634684F689C43FF0200D524
:100CA0001C433460114E0C3634684F689C43BF02BD
:100CB00000D51C433460521C102AFFF445AFBDE838
:100CC000F88F00004438024000300140000002402C
:100CD0000004024000080240000C024000100240E4
:100CE0000014024000180240001C0240003C014079
:100CF00001488068704700001C000020024881689D
:100D000002781144816070471C0000200B4810B528
:100D1000016841F400710160016841F48061016083
:100D2000016841F480710160032000F071F8002037
:100D300000F006F800F024F8002010BD003C02404E
:100D400070B50D4D04464FF47A712878B1FBF0F080
:100D50000A490968B1FBF0F000F004FB48B9102C17
:100D600007D200222146501E00F032F800206C60AD
:100D700070BD012070BD00001C0000202800002074
:100D80000B4882B0016841F480410160006800F4C2
:100D9000804000900648001F016841F080510160CA
:100DA000006800F080500090052002B000F030B8DC
:100DB00044380240002809DB00F01F020121914065
:100DC0004009800000F1E020C0F8001170470000E9
:100DD000F0B40E4B1B680C46C3F30223C3F10705A6
:100DE000042D00D90425191D072901D2002300E094
:100DF000DB1E012606FA05F1491E214099409E405E
:100E0000761E16403143F0BC02F013B80CED00E042
:100E1000064900F0070208684FF6FF03184040EA51
:100E20000220034A10430860704700000CED00E008
:100E30000000FA052DE9F0470E46050065D0DFF801
:100E40001481D8F80000F7B200F00F00B04207D2CA
:100E500088F80070D8F8000000F00F00B04254D1BC
:100E600028683D4C810712D5400703D5206840F41F
:100E7000E05020602878000703D5206840F46040E7
:100E800020602068A96820F0F000084320602878DE
:100E9000C0072DD0304968680839012812D00228CF
:100EA00013D0032811D00968890700292DDA216899
:100EB00021F0030101432160FFF71AFF814641F24F
:100EC000883A0EE009688903EFE709688901ECE7D1
:100ED000FFF70EFFA0EB0901514502D90320BDE841
:100EE000F0872068696800F00C00B0EB810FEFD14B
:100EF000D8F80010404601F00F01B14207D9077041
:100F0000006800F00F00B04201D00120E7E7287828
:100F1000400705D52068E96820F4E05008432060C8
:100F20002878000706D52068296920F4604040EA47
:100F3000C100206000F038F82168084AC1F30311AD
:100F4000515CC8400649086006480068FFF7F8FE93
:100F50000020C4E7003C024008380240123000087C
:100F60002800002020000020044805490068096886
:100F7000044AC1F38221515CC84070472800002018
:100F80000838024022300008044805490068096812
:100F9000044AC1F34231515CC84070472800002028
:100FA0000838024022300008154810B5006810F0DB
:100FB0000C02144813D04110042A0FD0082A0ED175
:100FC0000F4C241F2268236802F03F025B0207D502
:100FD0002068C0F38810A0FB010106E0084610BDA0
:100FE0002168C1F38811A1FB00010023FFF73CF940
:100FF0002168C1F30141491C4900B0FBF1F010BD6B
:10100000083802400024F4002DE9F84F04006ED0A7
:101010002078DFF83C93C007A9F104054AD009F114
:1010200004000168C1F38101012908D00068C0F300
:10103000810002280AD1D9F80000400206D52868AC
:10104000800337D560680028E1D033E06068B0F5F0
:10105000803F10D0B0F5A02F286810D020F4803049
:101060002860286820F4802028606068A8B1FFF715
:101070003FFE06460DE0286840F48030F4E740F477
:1010800080202860F7E700BFFFF732FE801B64284E
:1010900073D828688003F7D50CE0FFF729FE0646D1
:1010A00005E000BFFFF724FE801B6428F0D8286805
:1010B0008003F7D42078DFF89C8280074FF0000A85
:1010C0003ED5A348001D016811F00C0F08D0006840
:1010D000C0F3810002280BD1D9F80000400207D4E8
:1010E0002868800716D5E068012800D112E02BE1BE
:1010F000E068B8B10120C8F80000FFF7F9FD064626
:1011000005E000BFFFF7F4FD801B0228C0D8286867
:101110008007F7D52868216920F0F80040EAC1006F
:1011200028600DE0C8F800A0FFF7E2FD064604E0E5
:10113000FFF7DEFD801B02281FD828688007F7D440
:101140002078000722D5824E83486169703671B1DC
:1011500001210160FFF7CCFD074604E0FFF7C8FD61
:10116000C01B022809D830688007F7D50EE0C0F808
:1011700000A0FFF7BDFD074605E082E0FFF7B8FDE0
:10118000C01B02287DD830688007F7D4207840073C
:1011900068D5DFF8BCB100270BF13C0BDBF8000091
:1011A000C0000BD4DBF8001041F08051CBF80010E8
:1011B000DBF80000012700F080500090674E306897
:1011C000C00510D4306840F480703060FFF790FDA7
:1011D000009005E0FFF78CFD0099401A022850D8D6
:1011E0003068C005F6D55A4EA0686C3601280FD07D
:1011F0000528306810D020F001003060306820F001
:1012000004003060A068B8B1FFF772FD00900FE0F5
:10121000306840F00100F4E740F004003060F7E788
:10122000FFF766FD0099411A41F28830814266D885
:1012300030688007F4D50EE0FFF75AFD009007E014
:10124000FFF756FD0099411A41F28830814256D885
:1012500030688007F4D42FB1DBF8001021F0805102
:10126000CBF80010A069C8B33949091D0968C1F35A
:10127000810102294AD00228504607D0C8F86000F0
:1012800000E03CE0FFF734FD04463BE04746C8F889
:101290006000FFF72DFD064605E000BFFFF728FDC3
:1012A000801B02282BD828688001F7D4D4E90701D5
:1012B0000843A16A2A4A490802EB0141626A41EAED
:1012C0008211084394F82C1040EA0161C9F800101B
:1012D00001203866FFF70CFD044606E036E000BF4B
:1012E000FFF706FD001B022809D828688001F7D502
:1012F0002CE000BFFFF7FCFC001B022802D90320F2
:10130000BDE8F88F28688001F4D41FE00128F7D0E9
:10131000D9F80000E26900F48001914214D1226AF8
:1013200000F03F0191420FD147F6C071626A01405F
:10133000914209D1A26A00F44031914204D1E16A9C
:1013400000F07060884201D00120D9E70020D7E783
:101350000438024000004742800E474200700040BF
:101360000000FFFF10B5401EB0F1807F01D30120C7
:1013700010BD4FF0E02460610F21601701F059FDAE
:101380000020A06107202061002010BD7047704739
:1013900010B590F83C20012A22D0012280F83C2090
:1013A000CA688C6822F4407222434C6822F480623E
:1013B00022430C6822F4006222430C6922F480521A
:1013C00022434C6922F400522243C969002322F4CB
:1013D00080420A4301684A6480F83C30002010BD16
:1013E000022010BD70B590F83C20012A32D00124B3
:1013F00080F83C40022280F83D2003685A689D68CE
:1014000022F070060A6832435A60134B02689A420F
:1014100014D0B2F1804F11D0104B9A420ED0104B25
:101420009A420BD00F4B9A4208D00F4B9A4205D0EC
:101430000E4B9A4202D00E4B9A4204D1496825F0D5
:1014400080031943916080F83D40002180F83C10F2
:10145000084670BD022070BD00000140000400403D
:1014600000080040000C0040000401400040014022
:101470000018004010B5040003D094F83D0010B1EE
:1014800007E0012010BD002084F83C00204600F059
:101490000DF8022084F83D00211D206801F070F84D
:1014A000012084F83D00002010BD000008B5006850
:1014B0000B49884212D10B48016841F001010160DB
:1014C0000068002200F00100009001211920FFF7C0
:1014D0007FFCBDE808401920FFF76CBC08BD000088
:1014E000000001404438024070B5044690F83C00CA
:1014F000012817D0012584F83C50022084F83D00D3
:101500002068826822F0770222F47F4282600868B5
:10151000502830D00DDC20284DD005DC98B31028A1
:101520003BD148E0022070BD302844D0402834D15F
:1015300039E0602828D0702806D0B0F5805F2CD024
:10154000B0F5005F29D10AE0CB68D1E9012120681C
:1015500001F087F82068816841F0770109E0CB68E5
:10156000D1E90121206801F07CF82068816841F40C
:101570008041816011E0CA684968206801F046F93D
:101580005021206807E016E0CA684968206801F029
:101590004EF96021206801F06EF884F83D5000207B
:1015A00084F83C0070BDCA684968206801F02EF9D3
:1015B00040212068EFE7226801461046EBE77047BC
:1015C00010B50268044631B1042908D008291AD0A0
:1015D0000C2908D11BE0D06840F0020002E0D0687E
:1015E00040F00400D0600122206801F02DF820684E
:1015F000816801F00701062903D0016841F001016B
:101600000160002010BDD06840F00800EAE7D06813
:1016100040F01000E6E770B50446006801694FF03D
:101620000005C943890715D4C168C943890711D486
:10163000E91E01610120207720688069800720462B
:1016400002D0FFF7BCFF04E000F098F8204600F05D
:101650001AF9257720680169C943490717D4C16879
:10166000C943490713D46FF00401016102202077B8
:101670002068806910F4407F204602D0FFF79FFF6A
:1016800004E000F07BF8204600F0FDF825772068A4
:101690000169C943090716D4C168C943090712D4AF
:1016A0006FF008010161042020772068C06980077D
:1016B000204602D0FFF783FF04E000F05FF82046E9
:1016C00000F0E1F8257720680169C943C90617D4FD
:1016D000C168C943C90613D46FF010010161082025
:1016E00020772068C06910F4407F204602D0FFF7C1
:1016F00066FF04E000F042F8204600F0C4F82577C9
:1017000020680169C943C90708D1C168C943C9072D
:1017100004D1891E0161204600F0D8F820680169D3
:10172000C943090609D4C168C943090605D46FF045
:10173000800101612046FFF729FE20680169C94345
:10174000490609D4C168C943490605D46FF0400170
:101750000161204600F0BBF820680169C943890691
:101760000BD4C168C943890607D46FF02001016119
:101770002046BDE87040FFF70ABE70BD704770B5E7
:10178000044690F83C000D4601280DD0012684F84F
:101790003C60022084F83D0042B1042A18D0082A97
:1017A0002AD00C2A4DD139E0022070BD206800F00B
:1017B0006BFF2068816941F00801816120688169BF
:1017C00021F004018161206881692A69114311E0D7
:1017D000206800F089FF2068816941F4006181611F
:1017E0002068816921F480618161206881692A69AA
:1017F00041EA0221816124E0206800F0ABFF20680B
:10180000C16941F00801C1612068C16921F004018A
:10181000C1612068C1692A69114311E0206800F0A4
:10182000CDFF2068C16941F40061C1612068C169D0
:1018300021F48061C1612068C1692A6941EA0221FD
:10184000C16184F83D60002084F83C0070BD10B593
:10185000040003D094F83D0010B107E0012010BD52
:10186000002084F83C00204600F00CF8022084F8A8
:101870003D00211D206800F083FE012084F83D001A
:10188000002010BD7047704710B504460068012263
:1018900000F0DAFE0B492068884202D00A498842EB
:1018A00003D1416C41F4004141642068816801F03A
:1018B0000701062903D0016841F001010160002001
:1018C00010BD000000000140000401407047704757
:1018D00010B504460068416994F83920C1F3C0117D
:1018E000212A0BD151B1416921F080014161206B66
:1018F00008B1FEF756FF204601F072F820684169F2
:1019000094F83A20C1F38011222A0BD151B14169D8
:1019100021F040014161606B08B1FEF742FF2046B3
:1019200001F050F8002010BD7047000070B502684B
:1019300004461068D168536910F00F0F52D003F0BD
:10194000010501F490762E435FD0C20705D0CA0589
:1019500003D5E26B42F00102E263420705D5DA07E4
:1019600003D0E26B42F00202E263820705D5DA0798
:1019700003D0E26B42F00402E263020707D501F0F4
:1019800020022A4303D0E26B42F00802E263E26BDA
:10199000002A33D0800604D5880602D5204601F0FF
:1019A00028F820684069E16BC0F38010090700D473
:1019B00028B3204601F006F82068416949061AD587
:1019C000416921F040014161606BA0B11B49016593
:1019D000606BFEF72DFF002810D0606B016DBDE835
:1019E00070400847830610D58B060ED52046BDE80B
:1019F000704000F0FEBF2046FFF796FF70BD204606
:101A0000FFF792FF0020E06370BD030606D50B06CA
:101A100004D52046BDE8704001F0CAB84006F3D5B1
:101A20004806F1D5D168204621F04001D16020213F
:101A300084F8391000F028FB70BD0000ED28000884
:101A400070B5040004D094F83900002510B106E008
:101A5000012070BD84F83850204600F023F824207F
:101A600084F839002068C16821F40051C160204623
:101A700001F00AF82068016921F4904101612068B1
:101A8000416921F02A0141612068C16841F4005197
:101A9000C160E563202084F8390084F83A00002012
:101AA00070BD00002DE9F04F87B004461421684650
:101AB000FEF796FCFF48DFF8F8831038D4F800C032
:101AC000FC4A032702210823DFF8ECE30025061572
:101AD0004FF040094FF0006AC44559D1D2F800C018
:101AE000AB464CF4002CC2F800C0126802F400228D
:101AF0000592026842F0010202600068CDE90071BF
:101B000000F00100CDE90430CDE902576946704686
:101B1000FFF712F8DFF8A883E8494046C8F800103C
:101B2000C0E901A5C0E90356C8F81450C8F8185018
:101B3000C8F81C50C8F820505746C8F82450FEF783
:101B400059FF08B1FEF72BFEDC48DE4DC4F83480A7
:101B50003030C8F8384085E88102C5E903B6C5F8D9
:101B600014B0C5F818B0C5F81CB0C5F820B02846A8
:101B7000C5F824B0FEF73EFF08B1FEF710FE25635E
:101B8000002211463420AC63FFF722F9342067E0CD
:101B9000DFF83483C44568D1D2F800C04CF4801C0F
:101BA000C2F800C0126802F480120592026842F086
:101BB00004020260026802F004020592026842F028
:101BC000080202600068884600F0080005904FF4A3
:101BD0008050CDE900080DF1080C9B468CE8A00868
:101BE0006946BA48FEF7A8FF0420CDE900080DF1C8
:101BF0000808694688E8A008B548FEF79DFFAF4889
:101C0000B44F30383860C7E901A5C7E903567D6194
:101C1000BD61FD613D6238467D62FEF7EBFE08B1B5
:101C2000FEF7BDFD6763BC63AB4FA448C7F80890DF
:101C3000C7E903567D61BD61FD613D6278307D621B
:101C4000C7E9000A3846FEF7D5FE08B1FEF7A7FD42
:101C50002763002211463520BC63FFF7B9F8352011
:101C6000FFF7A8F807B0BDE8F08FDFF870824FF0FB
:101C7000070BC4454AD18F4A121D136843F0100365
:101C80001360126802F010020592026842F001022D
:101C90000260006800F0010005904FF4C0608DE81C
:101CA000A30869467046FEF747FF8E4F8C483860A0
:101CB000C7E901A5C7E903567D61BD61FD613D62CC
:101CC00038467D62FEF796FE08B1FEF768FD676351
:101CD000BC63854F8248C7F80890C7E903567D6109
:101CE000BD61FD613D6278307D62C7E9000A38461A
:101CF000FEF780FE08B1FEF752FD27630022114671
:101D00002520BC63FFF764F82520A9E7DFF8DC8114
:101D1000C44548D1136843F400331360126802F4D9
:101D200000320592026842F001020260006800F091
:101D3000010005900C208DE8A30869467046FEF767
:101D4000FBFE5E486A4F48303860C7E901A5C7E925
:101D500003567D61BD61FD613D6238467D62FEF7DF
:101D600049FE08B1FEF71BFD6763BC63614F534832
:101D7000C7F80890C7E903567D61BD61FD613D620A
:101D800060307D62C7E9000A3846FEF733FE08B1CD
:101D9000FEF705FD2763002211462620BC63FFF7EE
:101DA00017F826205CE7DFF85081C44557D1136847
:101DB000A84643F480231360126802F4802205923F
:101DC000026842F002020260006800F00200059022
:101DD0004FF440608DE8A30869464848FEF7ACFE22
:101DE0003649DFF81CB118395846CBF80010C0E965
:101DF00001A5C0E90356CBF81450CBF81850CBF826
:101E00001C50CBF820505746CBF82450FEF7F2FD7B
:101E100008B1FEF7C4FC29483A4DC4F834B0183074
:101E2000CBF8384085E88102C5E90386C5F81480FF
:101E3000C5F81880C5F81C80C5F820802846C5F86C
:101E40002480FEF7D7FD08B1FEF7A9FC2563002228
:101E500011462720AC63FEF7BBFF272000E72A4A84
:101E600094457FF4FFAE134A121DD2F800C04CF027
:101E7000200CC2F800C0126802F02002059202682D
:101E800042F0040202600068049300F00400059030
:101E9000C0208DE8A30069460C48FEF74DFE1048AF
:101EA0001A4F18384FF020683860C7E901852FE0D5
:101EB000004C0040403802400000024040600240B8
:101EC000F8020020580300200050004000080240A3
:101ED000000C0240B803002018040020001001404C
:101EE0004064024078040020D804002000440040F0
:101EF00038050020980500200048004000040240FA
:101F0000F80500205806002000140140B806002003
:101F1000C7E903567D61BD61FD613D6238467D6262
:101F2000FEF768FD08B1FEF73AFC6763BC630E4F2D
:101F30000C48C7E903567D61BD61FD613D627D626C
:101F400087E801033846FEF755FD08B1FEF727FC88
:101F50002763002211464720BC63FEF739FF472064
:101F60007EE60000A064024018070020F8B5044691
:101F700090F83A0020283CD1C1B3BAB394F83800A5
:101F8000012836D0012084F83800A162A2850025FE
:101F9000E563222084F83A00636B1748D863636BCB
:101FA00016481864636B1648D864606B1346056561
:101FB0000846666B216802463046091DFEF784FD1F
:101FC000206801684168009184F83850C16841F484
:101FD0008071C1602068416941F001014161206860
:101FE000416941F0400141610020F8BDFFE7012057
:101FF000FBE70220F9E700004729000883290008D1
:10200000FD2800087047704770B5044690F8390005
:10201000202830D169B362B394F8380001282AD05F
:10202000012084F838002162A284E2840025E5635F
:10203000212084F83900236B1048D863236B1048A3
:102040001864236B0F48D864206B13460565266817
:10205000206B321DFEF738FD21686FF040000860EC
:1020600084F838502068416941F0800141610020C6
:1020700070BD012070BD022070BD00008D290008D8
:10208000BB290008FD28000870477047FEE70000E4
:10209000394808B5016841F400110160016801F494
:1020A00000110091016841F4800101600068002284
:1020B00000F48000009011460B20FEF789FE0B20F3
:1020C000FEF778FE002211460C20FEF781FE0C2060
:1020D000FEF770FE002211460D20FEF779FE0D205E
:1020E000FEF768FE002211460E20FEF771FE0E205C
:1020F000FEF760FE002211460F20FEF769FE0F205A
:10210000FEF758FE002211461020FEF761FE102057
:10211000FEF750FE002211461120FEF759FE112055
:10212000FEF748FE002211462F20FEF751FE2F2019
:10213000FEF740FE002211463920FEF749FE392005
:10214000FEF738FE002211463A20FEF741FE3A2003
:10215000FEF730FE002211464520FEF739FE4520ED
:10216000FEF728FE002211464620FEF731FEBDE8AC
:1021700008404620FEF71EBE30380240154808B51C
:10218000016841F080010160016801F08001009167
:10219000016841F001010160016801F00101009155
:1021A000016841F002010160016801F00201009143
:1021B000016841F004010160016801F0040100912F
:1021C000016841F008010160006800F0080000901B
:1021D00008BD00003038024030B595B000240F949F
:1021E00010941194129413941C2108A81494FEF7CF
:1021F000F7F820216846FEF7F3F82E4D2C482860AA
:102200000920C5E9010441F61F40C5E90304012086
:10221000C5E905042846FFF72DF908B172B6FEE7B7
:102220004FF480500F900FA92248FFF75DF908B1D5
:1022300072B6FEE71F48FFF70AFB08B172B6FEE769
:10224000139413A91B481494FFF7CCF808B172B685
:10225000FEE76020CDE908040A940B940C940D94D9
:10226000002208A913480E94FFF789FA08B172B644
:10227000FEE700944FF40050CDE90440029401942D
:10228000039469460B480794FFF782F808B172B6C9
:10229000FEE700210748FFF7F7FA00210548FFF79E
:1022A0008FF92868C16841F00101C16015B030BDE7
:1022B000000001403801002010B5114C0F480C21DE
:1022C00020604FF4E13060600020A060E060C4E96D
:1022D0000401A061E0612046FFF7B2FB08B172B6CD
:1022E000FEE72068C16841F01001C1600449102276
:1022F000BDE8104081390248FFF738BE004C00406D
:102300007801002010B5114C0F480C2120604FF4CB
:10231000E13060600020A060E060C4E90401A061D9
:10232000E0612046FFF78CFB08B172B6FEE720683B
:10233000C16841F01001C16004491022BDE810409D
:10234000B1390248FFF712BE00500040B80100202A
:1023500010B5114C0F480C2120604FF4E130606043
:102360000020A060E060C4E90401A061E0612046B3
:10237000FFF766FB08B172B6FEE72068C16841F05E
:102380001001C160BDE81040102204490248FFF767
:10239000EDBD000000100140F8010020CC0000203D
:1023A00010B5114C0F480C2120604FF4E1306060F3
:1023B0000020A060E060C4E90401A061E061204663
:1023C000FFF73EFB08B172B6FEE72068C16841F036
:1023D0001001C160BDE81040102204490248FFF717
:1023E000C5BD00000044004038020020DC00002091
:1023F00010B5114C0F480C2120604FF4E1306060A3
:102400000020A060E060C4E90401A061E061204612
:10241000FFF716FB08B172B6FEE72068C16841F00D
:102420001001C160BDE810400B2204490248FFF7CB
:102430009DBD00000048004078020020EC00002014
:1024400010B5124C10482060114860604FF4805065
:10245000A0604000E060C01020610C20606100209E
:10246000A061E0612046FFF7EBFA08B172B6FEE723
:102470002068C16841F01001C160BDE810403222FF
:1024800004490248FFF772BD00140140B802002061
:10249000A086010017010020FEE7FEE770477047A5
:1024A000FEF72CBC30B593B030216846FDF798FF9D
:1024B00014210CA8FDF794FF1D480025016841F088
:1024C00080510160006800F0805011901948016847
:1024D00041F4804101600068022400F480401190C2
:1024E000012000904FF4A02001906005CDE9064046
:1024F00008AA0420902182E813000B906846FEF79A
:1025000083FD08B172B6FEE70CA90F2081E8310007
:102510004FF4A0500F904FF48050109004210CA85D
:10252000FEF788FC002801D072B6FEE713B030BD7C
:1025300040380240007000400548016841F47001D5
:10254000016003494FF00060803908607047000067
:1025500088ED00E006490120088006490888401CF3
:10256000088005490888401C08800448FFF753B8D4
:102570000E00002012000020100000203801002072
:10258000F0B50268254C264D264E274F274B4FF0BD
:10259000804CA04209D0604507D0A84205D0B04287
:1025A00003D0B84201D0984204D122F0700E4A689C
:1025B00042EA0E02A0421BD0604519D0A84217D0B3
:1025C000B04215D0B84213D0984211D0184DA8424D
:1025D0000ED0184DA8420BD0174DA84208D0174D69
:1025E000A84205D0164DA84202D0164DA84203D1EC
:1025F00022F44075CA682A434D6922F080022A43BA
:1026000002608A68C2620A688262A04201D098426F
:1026100001D10969016301214161F0BD0000014060
:102620000004004000080040000C0040000401408D
:1026300000400140004401400048014000180040B3
:10264000001C00400020004010B501F01F030121D4
:10265000046A99408C430462016A9A401143016202
:1026600010BD10B5846842EA032224F47F440A4373
:102670002243826010BD826822F070020A4342F059
:102680000701816070470000F0B5026A22F0010284
:102690000262036A42688469124E24F073050C6872
:1026A0002C4323F002058B682B430D4DA84201D02B
:1026B000B04205D123F00807CB683B4323F0040365
:1026C000A84201D0B04205D14D6922F440721543B1
:1026D0008A692A4342608461496841630362F0BDAC
:1026E0000000014000040140F0B5026A22F010022F
:1026F0000262026A436884690D6824F4E64444EA8D
:1027000005248D6822F0200242EA05120F4D104E7A
:10271000A84201D0B04206D1CF6822F0800242EA3E
:10272000071222F04002A84201D0B04207D14D6901
:1027300023F4406343EA85038D6943EA85034360DC
:102740008461496881630262F0BD000000000140BD
:1027500000040140F0B5026A22F480720262026A4B
:102760004368C46922F4007224F073050C68124EA9
:102770002C438D6842EA05220E4DA84201D0B0429A
:1027800006D1CF6822F4006242EA072222F4806276
:10279000A84201D0B04207D14D6923F4405343EA27
:1027A00005138D6943EA05134360C4614968C16339
:1027B0000262F0BD000001400004014030B5026A31
:1027C00022F480520262046A4268C3690D6823F4ED
:1027D000E64343EA05238D6824F4005444EA0534B3
:1027E000084DA84202D0084DA84204D14D6922F4F8
:1027F000804242EA85124260C36149680164046212
:1028000030BD0000000001400004014010B5036A23
:10281000046A24F001040462846924F0F00444EAA8
:10282000021423F00A020A438461026210BD10B54B
:10283000036A23F0100303628369046A23F470437C
:1028400043EA023224F0A00343EA011182610162EB
:1028500010BD00000E4808B500680168C1F3001102
:1028600061B10168406800900948FFF731F80948F4
:10287000006840680849C0F110000871102207493B
:102880000348FFF773FBBDE808400148FFF74EB867
:1028900078010020F802002014000020F70000203A
:1028A0000E4808B500680168C1F3001161B1016804
:1028B000406800900948FFF70BF809480068406835
:1028C0000849C0F110004871102207490348FFF77A
:1028D0004DFBBDE808400148FFF728B8B8010020CB
:1028E000B8030020140000200701002010B5806B01
:1028F0000021C185C184FFF717F810BD70B5846B46
:102900002068406994F83910C0F3C01000252129CF
:1029100004D118B1E584204600F062F820684069CF
:1029200094F83A10C0F38010222904D118B1E5853B
:10293000204600F047F8E06B40F01000E0632046CE
:10294000FEF7F2FF70BD10B50146806B096809689B
:10295000C90513D40021C1850168CA6822F48072B8
:10296000CA6001684A6922F001024A6101684A6945
:1029700022F040024A61202180F83A10FFF742FB22
:1029800010BD10B5806BFFF73EFB10BD10B50146C2
:10299000806B09680968C9050CD40021C1840168ED
:1029A0004A6922F080024A610068C16841F0400132
:1029B000C16010BDFFF768FB10BD10B5806BFFF75D
:1029C00064FB10BD0168CA6822F49072CA60016895
:1029D0004A6922F001024A61202180F83A107047CA
:1029E0000168CA6822F0C002CA60202180F839104C
:1029F000704710B590F83A10222901D0022010BD7E
:102A00008168B1F5805F11D00169002901681FD08C
:102A1000496801F07F03816A4A1C82620B70C18D94
:102A2000491E0904090CC18518D02BE00269816A8E
:102A3000002A0268526805D0D2B20A80816A491C15
:102A40008162ECE7C2F308020A80816A891CF7E719
:102A50004A68816A4B1C83620A70E0E70168CA68B1
:102A600022F02002CA600168CA6822F48072CA603B
:102A700001684A6922F001024A61202180F83A1077
:102A8000FFF7C0FA002010BD2DE9F04104460068B0
:102A90000169E26821F44051114301612169A06894
:102AA000E26908436169114308432168CA6849F231
:102AB0000C639A430243CA6020684169A26921F409
:102AC000407111434161E069192764253226B0F550
:102AD000004F354A354920684FF0000806D088423B
:102AE00001D0904236D1FEF74FFA35E0884201D04E
:102AF000904202D1FEF748FA01E0FEF735FA61682C
:102B00004A18A0FB070148EB0803FDF7ADFB01469F
:102B1000B0FBF5F00201B1FBF5F06FF0180358437C
:102B200001EB800006EBC000B0FBF5F000F0F80010
:102B300002EB4002B1FBF5F0584301EB800006EBDD
:102B4000C000B0FBF5F000F0070021681044886079
:102B5000BDE8F081FEF708FA61688B0F8A00A0FBE0
:102B60000701FDF781FB0146B0FBF5F06FF018029D
:102B7000504301EB800006EB0010B0FBF5F000F0D5
:102B8000F002B1FBF5F002EB0012B1FBF5F06FF0D3
:102B90001803584301EB800006EB0010B0FBF5F082
:102BA00000F00F00D1E700000014014000100140C8
:102BB00090F83910212901D0022070478168B1F5C1
:102BC000805F016A0BD04A1C02620268097851607A
:102BD000C18C491E0904090CC1840ED017E0098874
:102BE0000268C1F30801516001690029016A02D03D
:102BF000491C0162ECE7891CFBE70168CA6822F006
:102C00008002CA600068C16841F04001C1600020D4
:102C1000704700000E4808B500680168C1F3001154
:102C200061B10168406800900948FEF751FE09480B
:102C3000006840680849C0F1100048701022074938
:102C40000348FFF793F9BDE808400148FEF76EBE60
:102C5000F80100207804002014000020CC0000209F
:102C60000E4808B500680168C1F3001161B1016840
:102C7000406800900948FEF72BFE0948006840684C
:102C80000849C0F110008870102207490348FFF777
:102C90006DF9BDE808400148FEF748BE3802002043
:102CA0003805002014000020DC0000200E4808B584
:102CB00000680168C1F3001161B1016840680090CB
:102CC0000948FEF705FE0948006840680849C0F158
:102CD0000B00C8700B2207490348FFF747F9BDE80E
:102CE00008400148FEF722BE78020020F8050020C7
:102CF00014000020EC00002038B51B4C2068006850
:102D00000025C0F3001030B32046FEF7E1FD174860
:102D1000006840681649C0F13200C0B288711928B5
:102D200014D1144801780F2910D1017E71B9C07DEA
:102D3000114910B10C2808D008E0012008701922B0
:102D40000C490E48FDF707FB00E00D7032220949DF
:102D50000548FFF70BF92068016840680090BDE85E
:102D600038400148FEF7E2BDB8020020B806002056
:102D70001400002017010020060000207800002029
:102D8000084910B55A220A70A5224A7010228A708A
:102D900002460548FFF738F90349202081F8390039
:102DA00010BD00002C000020F8010020084910B5DB
:102DB0005A220A70A5224A7010228A7002460548DB
:102DC000FFF722F90349202081F8390010BD0000E7
:102DD0003600002038020020084910B55A220A7037
:102DE000A5224A7010228A70024614390448FFF75F
:102DF0000BF90349202081F8390010BD4A0000205A
:102E000078010020084910B55A220A70A5224A709C
:102E100010228A7002461E390448FFF7F5F803496C
:102E2000202081F8390010BD54000020B801002096
:102E3000FEE70907090E002804DB00F1E02080F816
:102E40000014704700F00F0000F1E02080F8141D1E
:102E500070470000FDF75AFFFFF724FBFFF78EF9DC
:102E6000FFF716F9FFF7B8F9FFF726FAFFF74AFA66
:102E7000FFF76EFAFFF794FAFFF7BAFAFFF7E0FAF6
:102E800000250A4C012620880128FCD12580608875
:102E9000322801D1FDF7D8FB60886428F3D366801F
:102EA000FDF77CFBFDF732FBEDE700000E00002094
:102EB00030B540F261131F4C40F29F65984201D13A
:102EC000012002E0A84201D10020608028464FF492
:102ED000B175814201D3014602E0A94200D21946F0
:102EE000824201D3024602E0AA4200D21A46A1F26F
:102EF000611100EE101A9FED101AA2F26112F8EEA5
:102F0000C00A80EE810ADFED0D0A20EE200ABCEE39
:102F1000C00A10EE100A00EE102AA080B8EEC00A17
:102F2000C0EE011A21EEA00ABCEEC00A10EE100A93
:102F3000E08030BD0600002000C0A74400004843E8
:102F40004FF04070E1EE100A70470000FF000100F2
:102F500007080000000001031F0002003F050000F9
:102F60000000020603000300FF020400010A04013E
:102F70007F0005000F070000000005040F00060099
:102F80007F0400000000060701000700FF010800A1
:102F9000030908023F0009001F06000000000905A0
:102FA00007000A00FF03000000000B00FF000C00F8
:102FB0000708000000000C031F000D003F05000083
:102FC00000000D0603000E00FF020F00010A0F01B2
:102FD0007F0010000F070000000010040F00110018
:102FE0007F0400000000110701001200FF01130020
:102FF000030913023F0014001F060000000014051F
:1030000007001500FF030000000000061016000670
:103010001016000000000000000001020304060773
:103020000809000000000102030400004C30000801
:10303000000000202C000000C401000878300008C7
:103040002C000020AC0D0000E00100080000000092
:1030500000000000000064006400000000000000A8
:10306000000000000000000001000000100000004F
:08307000000000000024F40040
:040000050800018965
:00000001FF
